0000C7002650000002674201901071408556291JOSE BARRETO DE OLIVEIRA                                                    BELMIRA ALVES DE MATOS          19290529201810120970222955300000000000000000000000106          
0000C7002650000002675201901071648543631SILVIO FERREIRA DOS SANTOS                                                  JOANA MADALENA DOS ANJOS        19460415201812220726557153300000000000000000000000106          
0000C7002660000002676201901070000000000JOAO FERREIRA LIMA                                                          MARGARIDA LUCIANA DE JESUS      19360107201812030654887780200000000000000000000000106          
0000C7002660000002677201901080000000000JOSE GONZAGA DE SOUZA                                                       MARIA JOSE DE JESUS             19800418201812230238376559700000000000000000000000106          
000C11000680000002703201812110000000000EULINA DA CRUZ NASCIMENTO                                                   MARIA CUSTODIA DA CRUZ          19320520201812066286122052000000000000000000000000291          
000C11000690000002704201812110000000000ADILINA FRANCISCA MACEDO                                                    MARIA FRANCISCA MACEDO          19290627201811127578572270400000000000000000000000291          
000C11000700000002705201812130000000000DELIVALDO RODRIGUES                                                         ANTONIA RODRIGUES               19640618201812066168057552000000000000000000000000291          
0000C4001140000002520201812050497148250MARIA ROZA PRADO DE JESUS                                                   SILVINA ROZA DO PRADO           19280526201811176983364856800000000000000000000000358          
0000C4001150000002521201812170000000000OSVALDO DE ABREU LIMA                                                       AURELINDA DE ABREU LIMA         19500810201812101078088250400000000000000000000000358          
0000C4001160000002522201812181448537379ROBERTA RAMOS SALES                                                         EMILIA RAMOS SALES              19471016201812170401440052200000000000000000000000358          
0000C4001170000002523201812196065170074ADELICE VIEIRA DA SILVA                                                     ALMIRA VIEIRA DA SILVA          19560610201812171543444318700000000000000000000000358          
0000C4001180000002524201812207024614596MINERVINO MACEDO DA CRUZ                                                    GENESIA RAMOS DE JESUS          19661016201812190665870850900000000000000000000000358          
0000C5000220000001719201812051037017045ADELINA SILVA                                                               MATILDE ALTA DA SILVA           19360827201806088085776090400000000000000000000000398          
0000C5000230000001720201812071575998863MARIA ANGELICA DA SILVA                                                     MARIA FRANSCISCA A DE JESUS     19560509201811260538282452500000000000000000000000398          
0000C5000240000001721201812100000000000GERSON DOURADO DAS NEVES                                                    ZEFERINA MARIA DAS NEVES        19601030201811290003852857600000000000000000000000398          
0000C5000250000001722201812125329536975DELY FURTUNATO DE ARAUJO                                                    MASSIONILA DE ARAUJO            19331019201809020549088750800000000000000000000000398          
0000C5000260000001723201812130000000000ROBERTO ARAUJO AGUIAR                                                       ARLINDA ARAUJO AGUIAR           19740507201811301326642782300000000000000000000000398          
0000C5000690000001650201901020000000000LUZIA ALVES DA SILVA                                                        AURORA ROSE MACHADO             19460109201812183209399310400000000000100002063000187          
0000C5000700000001651201901070000000000JOSE CAETANO VENANCIO                                                       ALCINA TEREZINHA DE JESUS       19510130201812300307703312700000000000100002063000187          
0000C5000710000001652201901075435132491JULIAO DIAS DE SOUZA                                                        DIOLINA DIAS DE SOUZA           19450108201812238144457510400000000000100002063000187          
0000C5000720000001653201901080000000000DIJALMA RIBEIRO DA SILVA                                                    CECILIA DE PAULA RIBEIRO        19460615201901061590079710400000000000100002063000187          
0000C9000650000003171201901070000000000LAZARO CORREIA DE OLIVEIRA                                                  APARECIDA BATISTA O MORAIS      19830206201812307395183819100000000000100007641000178          
000C15001100000003600201901030000000000JOSE MAMEDES BOMFIM                                                         TEREZINHA DE SOUZA BOMFIM       19630817201901010429746482900000000000100084524000108          
000C15001110000003601201901070000000000LURDES MARIA DA SILVA                                                       DORALINA ERTAL DOS SANTOS       19400603201812249757361291500000000000100084524000108          
0000C2000310000000071201812111681817494LUCIMAR DE SOUZA                                                            JOSEFA MARIA DE JESUS           19781103201812100062785818000000000000100177576000129          
