0000C7002650000002674201901071408556291JOSE BARRETO DE OLIVEIRA                                                    BELMIRA ALVES DE MATOS          19290529201810120970222955300000000000000000000000106          
0000C7002650000002675201901071648543631SILVIO FERREIRA DOS SANTOS                                                  JOANA MADALENA DOS ANJOS        19460415201812220726557153300000000000000000000000106          
0000C7002660000002676201901070000000000JOAO FERREIRA LIMA                                                          MARGARIDA LUCIANA DE JESUS      19360107201812030654887780200000000000000000000000106          
0000C7002660000002677201901080000000000JOSE GONZAGA DE SOUZA                                                       MARIA JOSE DE JESUS             19800418201812230238376559700000000000000000000000106          
000C11000680000002703201812110000000000EULINA DA CRUZ NASCIMENTO                                                   MARIA CUSTODIA DA CRUZ          19320520201812066286122052000000000000000000000000291          
000C11000690000002704201812110000000000ADILINA FRANCISCA MACEDO                                                    MARIA FRANCISCA MACEDO          19290627201811127578572270400000000000000000000000291          
000C11000700000002705201812130000000000DELIVALDO RODRIGUES                                                         ANTONIA RODRIGUES               19640618201812066168057552000000000000000000000000291          
0000C4001140000002520201812050497148250MARIA ROZA PRADO DE JESUS                                                   SILVINA ROZA DO PRADO           19280526201811176983364856800000000000000000000000358          
0000C4001150000002521201812170000000000OSVALDO DE ABREU LIMA                                                       AURELINDA DE ABREU LIMA         19500810201812101078088250400000000000000000000000358          
0000C4001160000002522201812181448537379ROBERTA RAMOS SALES                                                         EMILIA RAMOS SALES              19471016201812170401440052200000000000000000000000358          
0000C4001170000002523201812196065170074ADELICE VIEIRA DA SILVA                                                     ALMIRA VIEIRA DA SILVA          19560610201812171543444318700000000000000000000000358          
0000C4001180000002524201812207024614596MINERVINO MACEDO DA CRUZ                                                    GENESIA RAMOS DE JESUS          19661016201812190665870850900000000000000000000000358          
0000C5000220000001719201812051037017045ADELINA SILVA                                                               MATILDE ALTA DA SILVA           19360827201806088085776090400000000000000000000000398          
0000C5000230000001720201812071575998863MARIA ANGELICA DA SILVA                                                     MARIA FRANSCISCA A DE JESUS     19560509201811260538282452500000000000000000000000398          
0000C5000240000001721201812100000000000GERSON DOURADO DAS NEVES                                                    ZEFERINA MARIA DAS NEVES        19601030201811290003852857600000000000000000000000398          
0000C5000250000001722201812125329536975DELY FURTUNATO DE ARAUJO                                                    MASSIONILA DE ARAUJO            19331019201809020549088750800000000000000000000000398          
0000C5000260000001723201812130000000000ROBERTO ARAUJO AGUIAR                                                       ARLINDA ARAUJO AGUIAR           19740507201811301326642782300000000000000000000000398          
0000C5000690000001650201901020000000000LUZIA ALVES DA SILVA                                                        AURORA ROSE MACHADO             19460109201812183209399310400000000000100002063000187          
0000C5000700000001651201901070000000000JOSE CAETANO VENANCIO                                                       ALCINA TEREZINHA DE JESUS       19510130201812300307703312700000000000100002063000187          
0000C5000710000001652201901075435132491JULIAO DIAS DE SOUZA                                                        DIOLINA DIAS DE SOUZA           19450108201812238144457510400000000000100002063000187          
0000C5000720000001653201901080000000000DIJALMA RIBEIRO DA SILVA                                                    CECILIA DE PAULA RIBEIRO        19460615201901061590079710400000000000100002063000187          
0000C9000650000003171201901070000000000LAZARO CORREIA DE OLIVEIRA                                                  APARECIDA BATISTA O MORAIS      19830206201812307395183819100000000000100007641000178          
000C15001100000003600201901030000000000JOSE MAMEDES BOMFIM                                                         TEREZINHA DE SOUZA BOMFIM       19630817201901010429746482900000000000100084524000108          
000C15001110000003601201901070000000000LURDES MARIA DA SILVA                                                       DORALINA ERTAL DOS SANTOS       19400603201812249757361291500000000000100084524000108          
0000C2000310000000071201812111681817494LUCIMAR DE SOUZA                                                            JOSEFA MARIA DE JESUS           19781103201812100062785818000000000000100177576000129          
0000C2000320000000072201812180543813517GERALDO ZEFERINO GOMES                                                      MARIA JOSEFA CORREIA            19180217201812174154056514900000000000100177576000129          
00C298001590000109884201901100000000000ANTONIO OTAVIO VALLIM                                                       ZULMIRA BRUFATTO VALLIM         19431012201901100216227089700000000000100351405000174          
00C298001590000109885201901100000000000ANTONIO JOSE DA SILVA CORREA                                                SILVIA PIMENTEL DA SILVA CORREA 19520320201901094580629272000000000000100351405000174          
00C298001600000109886201901100000000000MARCELO CORDEIRO DE OLIVEIRA                                                ADELINA APARECIDA C DE OLIVEIRA 19670130201812260716970686500000000000100351405000174          
00C298001600000109887201901100000000000APPARECIDA DA SILVA COSTA                                                   JOSEPHA DIAS                    19290804201901049825896680400000000000100351405000174          
000C37001090000029878201901030000000000DORITY MARIA DELLA LIBERA ALEXANDRE                                         PASCHOALINA FRANCISCHETTO       19280528201812260525486186000000000000100360812000148          
000C37001090000029879201901030000000000LUIZ CARLOS FLORIANO                                                        ADELAIDE REZENDE                19490611201812261166194680100000000000100360812000148          
000C37001100000029880201901030000000000KOZELIR DOS SANTOS COSTA                                                    KODECIR SILVA VIEIRA            19511201201812280355900580900000000000100360812000148          
000C37001100000029881201901030000000000BRUNO SERGIO PROCOPIO                                                       LOURDES OLEICA CARREAO          19540518201812298433682083000000000000100360812000148          
000C37001110000029882201901030000000000ANGELO DAMICO NETO                                                          IDA NINI DAMICO                 19580406201812300015788385000000000000100360812000148          
000C37001110000029883201901030000000000LORENA PACHECO BERNARDO                                                     TATIANA NARDELLI PACHECO        20140414201812304914173689300000000000100360812000148          
000C37001120000029884201901030000000000TEREZA CELESTINA DE OLIVEIRA                                                DOMINGO CELESTINO DA SILVA      19240210201812303496473380700000000000100360812000148          
000C37001120000029885201901030000000000BRENDA ALVES DE MORAES                                                      ANTONIA DALVA ALVES DE OLIVEIRA 20010804201901012409006680800000000000100360812000148          
000C37001130000029886201901030000000000EUFEMIA CLEMENTE SPANO                                                      ROSA MANHA                      19270115201901012533268887300000000000100360812000148          
000C37001130000029887201901080000000000EDVALDO CARLOS DA SILVA                                                     EDILEUSA MARIA DA SILVA         19760825201812280257561340000000000000100360812000148          
000C37001140000029888201901080000000000CLAUDIO LYRA                                                                PILAR MILAN                     19350511201812300292929587200000000000100360812000148          
000C37001140000029889201901080000000000MISAKO YOGUI TERUYU                                                         TOMIKO YOGUI                    19380930201901040945581688100000000000100360812000148          
000C37001150000029890201901080000000000ABIGAIL ANTONIA REIS                                                        CLEMENCIA VIRGINIA DE JESUS     19510801201901040735586284700000000000100360812000148          
000C37001150000029891201901080000000000LAUDEMIR ALVES DE OLIVEIRA                                                  DURVALINA MELCHIOR DE OLIVEIRA  19320828201901041005177589100000000000100360812000148          
000C37001160000029892201901080000000000EVELYN RODRIGUES ROCHA DE SOUSA                                             ROSANA RODRIGUES ROCHA DE SOUSA 19931013201901054183748984000000000000100360812000148          
000C37001160000029893201901080000000000JOAO COCA                                                                   CATARINA PRESTES                19311211201901056609577889100000000000100360812000148          
000C37001170000029894201901080000000000TAKONORI AMADATSU                                                           TOMI AMADATSU                   19410120201901050883906988700000000000100360812000148          
000C37001170000029895201901080000000000JOAO ALEXANDRE JUNIOR                                                       LUCIANA JULIA ANACLETO          19320914201901062396781170000000000000100360812000148          
000C37001180000029896201901090000000000GESSY DA SILVA RACY                                                         ISAURA COELHO DA SILVA          19251215201901091540782581300000000000100360812000148          
000C37001180000029897201901090000000000JAIR MAIA                                                                   LYDIA BUENO OLIVEIRA            19300924201901090261840088700000000000100360812000148          
000C37001190000029898201901100000000000TOSHIICHI TANJI                                                             YOSHINO TANJI                   19290110201901066079261286800000000000100360812000148          
000C37001190000029899201901100000000000JULIETA MALFRA DA SILVA                                                     MARIA VITORIA DA SILVA          19411123201901072564917780500000000000100360812000148          
000C37001200000029900201901100000000000IVONE JOSEFINA WEIDLE                                                       MARIA FASSIL JACOBOWSKI         19310704201901083864507987900000000000100360812000148          
000C37001200000029901201901100000000000NEIDE FRAGA NOVAIS                                                          JOANA FRAGA DE JESUS            19381205201901090753268086000000000000100360812000148          
000C37001210000029902201901100000000000PEDRO FLORENTINO                                                            ZULMIRA FLORENTINO              19440207201901092238050787200000000000100360812000148          
000C79002400000047119201901020000000000SUEL ABUJAMRA                                                               MATILDA ABUJAMRA                19331001201812290055498787200000000000100389631000144          
000C79002400000047120201901020000000000KATSUMI HARA                                                                MATSU NAGATA                    19240113201812270470948485600000000000100389631000144          
000C79002410000047121201901020000000000DIVA SILVEIRA FRANCO PUTTINI                                                ROSA GULLO SILVEIRA FRANCO      19320625201812276786458980400000000000100389631000144          
000C79002410000047122201901040000000000MARIA DULCE FALCAO DA SILVEIRA                                              MARIA LUIZA LACERDA FALCAO      19280122201812283121257080400000000000100389631000144          
000C79002420000047123201901040000000000BENEDICTO TOSHIKAZU ANDO                                                    MITI ANDO                       19411225201812292032241080000000000000100389631000144          
000C79002420000047124201901040000000000DANIEL ISSAMU NOMURA                                                        MITSUE NOMURA                   19490123201812290347141196800000000000100389631000144          
000C79002430000047125201901040000000000SONIA REGINA OLIVEIRA RAMOS                                                 LEDA REGINA DE OLIVEIRA RAMOS   19580307201812300015099385400000000000100389631000144          
000C79002430000047126201901040000000000SANDRA AIKO KUBOTA SCHERRER                                                 LUIZA KUBOTA                    19820325201812303070635687000000000000100389631000144          
000C79002440000047127201901040000000000GABRIEL TAVEIRA DOS SANTOS                                                  VANESSA CRISTINA T DOS SANTOS   20181211201812305621964284800000000000100389631000144          
000C79002440000047128201901040000000000ANTONIO SALVADOR SUCAR                                                      BALOMIA LULU                    19390614201812310024755389100000000000100389631000144          
000C79002450000047129201901040000000000MONICA COCOROCI                                                             MARIA DO CARMO MARTINEZ COCOROCI19770820201812312529469482400000000000100389631000144          
000C79002450000047130201901040000000000EDILEUSA DE SANTANA SILVA                                                   RAIMUNDA DE SANTANA SILVA       19720512201901011733671781000000000000100389631000144          
000C79002460000047131201901050000000000NELSON MUSTO                                                                ROSA MUSTO                      19310303201901051355882087800000000000100389631000144          
000C79002460000047132201901070000000000SILVANA FERREIRA DA SILVA                                                   EDENIR FERREIRA DA SILVA        19690529201901050801808987600000000000100389631000144          
000C79002470000047133201901080000000000JOSE OSWALDO RIBEIRO DE MENDONCA                                            THEREZINHA C V DE MENDONCA      19651111201812260761808086000000000000100389631000144          
000C79002470000047134201901080000000000ANA APARECIDA PENACHIO                                                      MARIA PRADO                     19330315201812255868244982000000000000100389631000144          
000C79002480000047135201901080000000000EDMILSON PAULINO DOS SANTOS                                                 ODILA SEBASTIANA DE O PAULINO   19610430201901010390195987400000000000100389631000144          
000C79002480000047136201901080000000000MARIA LUIZA TAPIA CAIAFA                                                    HELENA JULIA TAPIA              19561203201901028990154189100000000000100389631000144          
000C79002490000047137201901080000000000RENATO TUMA                                                                 AMERICA TRABULSI TUMA           19330601201901030084562080000000000000100389631000144          
000C79002490000047138201901080000000000RUBENS MANOEL FERNANDES PARADA                                              YOLANDA FERNANDES PARADA        19521014201901067003029480000000000000100389631000144          
00C306001930000123403201901100000000000LUIS CARLOS DE LIMA                                                         ZULMIRA FRANCISCA DE LIMA       19760929201901062638964689500000000000100393441000109          
00C306001930000123404201901100000000000ROSA AUGUSTA CARGNIELI PAVAN                                                NEUZA DA SILVA CARGNIELI        19771025201901062642250580900000000000100393441000109          
00C306001940000123405201901100000000000GINOVALDO PEREIRA                                                           MARIA JOSE DE JESUS             19550618201901068734818758700000000000100393441000109          
00C306001940000123406201901100000000000SUELY GONCALVES GARCIA                                                      LUIZA DOS SANTOS                19550125201901057732313089100000000000100393441000109          
00C306001950000123407201901100000000000PAULO REIS PROENCIO                                                         LUZIA PEREIRA PROENCIO          19660430201901052603755285100000000000100393441000109          
00C306001950000123408201901100000000000JOSIANE APARECIDA ROCHA BRITO                                               ELENAURA DE ALMEIDA ROCHA       19911109201901060550308555800000000000100393441000109          
00C306001960000123409201901100000000000LUIZ ANTONIO DE ASSIS CASTRO                                                JULIETA CECCON DE ASSIS         19501117201901061929830769100000000000100393441000109          
00C306001960000123410201901100000000000FRANCISCO COUTINHO DOS SANTOS                                               RITA COUTINHO DOS SANTOS        19461018201901063479714986800000000000100393441000109          
00C306001970000123411201901100000000000EDVALDO BARBOSA DA SILVA                                                    ZELIA VIEIRA BEM DA SILVA       19810209201901053036210180900000000000100393441000109          
00C306001970000123412201901100000000000ALEXANDRA APARECIDA SOARES DE ABREU SALVADORI                               MARCIA GLORIA BORGES S DE ABREU 19640530201901031207301787800000000000100393441000109          
00C306001980000123413201901100000000000DECIO CUNHA JUNIOR                                                          MARIA LUIZA DE MORAES CUNHA     19370805201901051404008586800000000000100393441000109          
00C306001980000123414201901100000000000ENRIQUE ANTONIO GENTILE                                                     DELIA REGINA ALEVATTO           19491130201901051202948189000000000000100393441000109          
00C306001990000123415201901100000000000DOMINGAS DE OLIVEIRA SILVA                                                  LAURA DE OLIVEIRA               19520325201901064027576055300000000000100393441000109          
00C306001990000123416201901100000000000MARIA APARECIDA GONCALVES                                                   MARIA CECILIA DE JESUS          19480510201901052517371180900000000000100393441000109          
00C306002000000123417201901100000000000LEONOR BUENO BELCHIOR                                                       ROSA BUENO                      19300227201901060708011586800000000000100393441000109          
00C307000010000123418201901100000000000BENEDITO CIRILO                                                             MARIA EUGENIA CIRILO            19450822201901061197253580300000000000100393441000109          
00C307000020000123419201901100000000000IDALINA MACHADO DE MORAES                                                   BENEDITA MARIA JUDITH           19360915201901050934398186400000000000100393441000109          
00C307000020000123420201901100000000000JOSIANE NOGUEIRA DO NASCIMENTO                                              CLARICE NOGUEIRA DO NASCIMENTO  19860227201901063535885086400000000000100393441000109          
00C307000030000123421201901100000000000GERALDO FRANCISCO DA SILVA                                                  TOLENTINA ALVES M DA SILVA      19520727201901061682609782600000000000100393441000109          
00C307000030000123422201901100000000000AUGUSTA NOCHELLI MANTOVANI                                                  JOSEPHINA BENETTI               19251107201901061099196280000000000000100393441000109          
00C307000040000123423201901100000000000ANTONIO JONAS DOS REIS                                                      ERNESTINA AUGUSTA DOS REIS      19490621201901070000000000000000000000100393441000109          
00C307000040000123424201901100000000000MARIA DO CARMO ROCHA                                                        ANTONIA AUGUSTA GODINHO         19561009201901053675648885600000000000100393441000109          
00C307000050000123425201901100000000000MARIA DE LOURDES BORTOLOSE DA COSTA MAIA                                    EMILIA BORTOLOSE                19230630201901079111165081000000000000100393441000109          
00C307000050000123426201901100000000000MARIA APARECIDA VIEIRA DE PAULA                                             MARIA CANDIDA TRISTAO           19540102201901050797173285600000000000100393441000109          
00C307000060000123427201901100000000000NEUSA DE ALMEIDA E SILVA                                                    HILDA CORREA DE ALMEIDA         19540830201901078705865085300000000000100393441000109          
000C15000280000007707201901101297052126CECILIA ZUCHINI PADOVANNI                                                   MARIA BRAZ                      19351007201812301592713580300000000000100478616000172          
000C76001330000018362201901030000000000PALMIRA LALLI SCURACCHIO                                                    MARGARIDA ZAGO                  00000000201812313853204384400000000000100490817000195          
000C76001420000018380201901090813270030NAJLA DAMAA HADDAD                                                          GABRIELA GABRIEL JOAO           19300414201901071631166786000000000000100490817000195          
000C76001420000018381201901091178083540WILMA MINCHUERRI GUTIERREZ                                                  MARIA CANATO                    19381210201901073003027280700000000000100490817000195          
000C76001430000018382201901090881448583MARIA DA ASCENCAO VAZ                                                       ELISA DA CONCEICAO              19290415201901070668109289600000000000100490817000195          
000C37001180000022161201901100572436297BENEDITO FLORES MIRANDA                                                     EMILIA EBRAM DE FARIA           19280815201901070186200684900000000000100498198000185          
0000C7001380000002844201901111001924034MARIA DO CARMO DO NASCIMENTO GONCALVES                                      RAIMUNDA RODRIGUES DO NASCIMENTO19310125201901102301645037200000000000100506627000119          
000C85002860000019297201901020000000000LOURDES CORNELIA ROCHA TOMANIK                                              FRANCISCA DIAS ROCHA            19230719201812241531664687800000000000100535894000114          
000C85002860000019298201901020000000000LUCY CONTI BARBUR                                                           RAPHAELA CHECCHIA CONTI         19410306201812241283958481600000000000100535894000114          
000C85002870000019299201901020000000000JOHN ROBERT MILLS                                                           DOLORES LUIZA DIAZ DE M MILLS   19380513201812240310484286800000000000100535894000114          
000C85002870000019300201901020000000000JOSE FAVILLI NETO                                                           ITALIA FAVILLI                  19360822201812240030502284900000000000100535894000114          
000C85002880000019301201901020000000000ANTONIO AYRES GONCALVES DE OLIVEIRA                                         QUEROBINA AYRES DE OLIVEIRA     19410422201812250010958487200000000000100535894000114          
000C85002880000019302201901020000000000KUOK WUM RONG                                                               KUOK WU SE                      19360904201812250686424417200000000000100535894000114          
000C85002890000019303201901020000000000CONSTANTIN GEORGES PAPAROUNIS                                               ANA PAPAROUNIS                  19300301201812250000000000000000000000100535894000114          
000C85002890000019304201901020000000000ARINDA BRAZOLIN                                                             MARIANA SIMAO TAPY              19250801201812263414818086100000000000100535894000114          
000C85002900000019305201901020000000000ISABEL MURCIA OLIVO                                                         MERCEDES BORRERO                19360521201812260000000000000000000000100535894000114          
000C85002900000019306201901020000000000ODEWAL MIQUELIM                                                             VIRGINIA CESARIO                19290529201812270076093581500000000000100535894000114          
000C85002910000019307201901020000000000MARIA HELENA DOS SANTOS MACEDO                                              APARECIDA MARQUES DOS SANTOS    19500331201812272039069887300000000000100535894000114          
000C85002910000019308201901030000000000JOAQUIM BAPTISTA CARREIRA                                                   TERESA DE JESUS BAPTISTA        19400227201901037028921280400000000000100535894000114          
000C85002920000019309201901040000000000ANTONIO ARISTEU CERIBELLI                                                   LINA FINELLI CERIBELLI          19310903201812261418138088200000000000100535894000114          
000C85002920000019310201901040000000000CLAUDIO JOAO FRANCISCO EUGENIO DI MONACO                                    HORTENCIA CUPOLO DI MONACO      19410512201812274221643587200000000000100535894000114          
000C85002930000019311201901040000000000CELIA MANTELLI NEUMANN                                                      OLGA PIRES DE CASTRO MANTELLI   19231116201812275800405000000000000000100535894000114          
000C85002930000019312201901040000000000ANTONIO BALECHE                                                             EMELY MIMESSI BALECHE           19401109201812280026890984900000000000100535894000114          
000C85002940000019313201901040000000000EDNA FERREIRA SENA                                                          ANA MARIA DE OLIVEIRA           19330808201812283941385380000000000000100535894000114          
000C85002940000019314201901040000000000FILIP ASZALOS                                                               ECATERINA ASZALOS               19310820201901040049142089700000000000100535894000114          
000C85002950000019315201901040000000000ELZA DA SILVA MAIORAL                                                       MARIA PRESILINA DOMINGUES       19360822201812292541857985100000000000100535894000114          
000C85002950000019316201901040000000000HILARIO BARBOSA FALLEIROS                                                   MARIA DE FREITAS FALLEIROS      19300826201812290460984080400000000000100535894000114          
000C85002960000019317201901050000000000JUSTINA MOLON                                                               TEREZA LAGHETTO MOLON           19360401201812290000000000000000000000100535894000114          
000C85002960000019318201901050000000000PEDRO NETO MARTINS                                                          IDALIA FRANCISCA DE SOUZA       19580313201812290342844083800000000000100535894000114          
000C85002970000019320201901050000000000TSUYAKO KATAYAMA HASHIMOTO                                                  SHIONO KATAYAMA                 19300515201812302192264380700000000000100535894000114          
000C85002980000019321201901050000000000EDUARDO WEBER FILHO                                                         HELENA WEBER                    19341007201901050040744582000000000000100535894000114          
000C85002980000019322201901070000000000HELOISA VASCONCELLOS AMARAL CAETANO                                         LEIA VASCONCELLOS DO AMARAL     19691001201812301090399189600000000000100535894000114          
000C85002990000019323201901070000000000MARIA REGINA GUIMARAES GONCALVES                                            CLECY VINHON GUIMARAES GONCALVES19580821201812319561342081500000000000100535894000114          
000C85002990000019324201901070000000000SANDRA REGINA OLIVEIRA GUEDES DOS SANTOS                                    MARIA DO CARMO OLIVEIRA GUEDES  19570702201812310005380880000000000000100535894000114          
000C85003000000019325201901070000000000MARIO KIKUO KIMURA                                                          AYA KIMURA                      19441112201901015054715185300000000000100535894000114          
000C86000010000019326201901070000000000ELIZA DE LIMA HEREIDA                                                       BRASILIA DE LIMA                19430729201901022063352780700000000000100535894000114          
000C86000020000019327201901070000000000ROSA MARIA AMORIM                                                           BENEDICTA MARIA VIEIRA          19380705201812302515084281800000000000100535894000114          
000C86000020000019328201901080000000000LOLITA GOLOMBEG BOROWSKI                                                    MARIA GOLOMBEG                  19330604201901010761908382000000000000100535894000114          
000C86000030000019329201901080000000000LAURA MEDEIROS RODRIGUES                                                    BELARMINA MARIA DE JESUS        19220215201901020083719385000000000000100535894000114          
000C86000030000019330201901080000000000ANTONIO AUGUSTO MOREIRA FERREIRA                                            ROSENTINA MOREIRA FERREIRA      19290430201901030026871289100000000000100535894000114          
000C86000040000019331201901080000000000ATAIDE DE AZEVEDO                                                           MARIA DE AZEVEDO                19421005201901083299362593400000000000100535894000114          
000C86000040000019332201901090000000000GILDA MADER RODRIGUES                                                       MARIA DE LOURDES TRAMUJAS MADER 19310916201901023082109586200000000000100535894000114          
000C86000050000019333201901090000000000MARIA NECY MONTEIRO DE ARAUJO                                               EULINA SALES MONTEIRO           19270811201901042560384981900000000000100535894000114          
000C86000050000019334201901090000000000ELIZEU CICERO DA SILVA                                                      MARIA CARNEIRO DA SILVA         19670512201901040000000000000000000000100535894000114          
000C86000060000019335201901090000000000ALFREDO ANTONIO PINHEIRO FILHO                                              CANDIDA HENRIQUE PINHEIRO       19530317201901048156311680400000000000100535894000114          
000C86000060000019336201901090000000000ALCEU JOSE VIEIRA FILHO                                                     FRANCISCA PINTO GUEDES          19490626201901047681469680000000000000100535894000114          
000C85000530000020653201901100000000000JUAREZ DA SILVA AGUIAR                                                      JOSINA NEGREIROS DE AGUIAR      19300625201901090174134916800000000000100547851000159          
0000C8000700000007343201806010000000000JOSE ROBERTO DE FRANCA                                                      JOSEFA OTILIA DA C FRANCA       00000000201805310356463141000000000000100604195000189          
0000C8000710000007344201806010000000000ALISSOM MARCONI DE LIMA SOUSA SILVA                                         ANGELA MARIA CORDEIRO DE LIMA   20030326201805233504253584500000000000100604195000189          
000C14000600000004472201812260000000000DILSON APARECIDO DUARTE                                                     PAULA ELIDIA DE FARIA FRANCISCO 19530305201812190962542482200000000000100605636000167          
000C14000610000004473201812260000000000IZAURA VIGLIAZI BUTTINI                                                     PASCHOA FUMES VIGLIAZI          19350826201812210680855882500000000000100605636000167          
000C14000620000004474201812270000000000ANNA CAMACHO KROUMAN                                                        MARIA MARTINS SANCHES           19330628201812255672181180400000000000100605636000167          
000C14000630000004475201812270000000000NILCE GIANAZI                                                               LUIZA ROMEIRO GIANAZI           19560706201812260427736382200000000000100605636000167          
00C282000250000106611201812140000000000SILVIRINO SOUZA SANTOS                                                      VANILDA SOUZA SANTOS            19820108201812140000000000000000000000100618611000106          
00C282002600000106846201901100000000000NELI AVELINO                                                                MARIA DA FONSECA PINTO          19421211201901100000000000000000000000100618611000106          
0000C1001640000000655201812310000000000JOVILINA BRITO LIMA                                                         PEDRO PEREIRA DE BRITO          19430725201811306734040720000000000000100631045000164          
0000C1001640000000656201901030000000000MOISES GONCALVES DE SOUZA                                                   MARIA DE SOUZA SILVA            19490622201812241509298428700000000000100631045000164          
0000C1001650000000657201901070000000000AZELINO DA SILVA CARDOZO                                                    IRACENE PEREIRA DA SILVA        19920423201812230289836921700000000000100631045000164          
0000C1001650000000658201901070000000000MARIA ALVES DOS SANTOS                                                      MARIA CONCEICAO DE JESUS        19350121201812255929797226800000000000100631045000164          
000C24003000000016953201901030000000000RAUL LAZARI                                                                 ROSA CRIPA                      19461022201812309945345281500000000000100657609000138          
000C25000010000016954201901060000000000MARIVALDO DA SILVA                                                          QUITERIA AMELIA DA SILVA        19791130201901052341041485100000000000100657609000138          
000C25000020000016955201901070000000000SHIZUKO SUZUKI                                                              HARUO SUZUKI                    19270707201901060499896386400000000000100657609000138          
000C25000020000016956201901070000000000FRANCISCO URTADO RODRIGUES                                                  CONSTANTINA RODRIGUES LOZAMA    19251025201901053128943680000000000000100657609000138          
000C25000030000016957201901090000000000LUZIA SFERRA HALGREN                                                        JOANA MARIA GINEVO              19410131201901093208667086900000000000100657609000138          
000C48002510000020425201901020000000000MATILDE GOLFETTO GALLUCCI                                                   JUSTINA MONTAGNANA              19261230201812210702017183400000000000100708049000101          
000C48002510000020426201901020000000000BENEDICTA FRANCISCO MANCILIO                                                FRANCISCA LOURENCO              19260218201812221327078686700000000000100708049000101          
000C48002520000020427201901020000000000TETSUO OKUDA                                                                TOME OKUDA                      19360726201812233264907089700000000000100708049000101          
000C48002520000020428201901020000000000NILDA CRISTINA DOS SANTOS                                                   ERCILIA SEBASTIANA DE JESUS     19400206201812232124868187800000000000100708049000101          
000C48002530000020429201901020000000000ANTONIA CARBONERA DO NASCIMENTO                                             MARIA GRACIA                    19250528201812231701039281100000000000100708049000101          
000C48002530000020430201901020000000000ANTONIO CAMPOS GOMES                                                        MARIA CAMPOS GOMES              19251216201812240917711688700000000000100708049000101          
000C48002540000020431201901020000000000LAURENTINA PEDROSO ALVES                                                    RAYMUNDA MARIA DE JESUS         19360907201812243110980185800000000000100708049000101          
000C48002540000020432201901020000000000MARIA DE LOURDES DA SILVA PINTO                                             ADELINA MARIA DOS SANTOS        19380415201812246812611581500000000000100708049000101          
000C48002550000020433201901020000000000MARIA YOLANDA TANGERINO DE LIMA                                             ANTONIA APPARECIDA              19300324201812240231097387400000000000100708049000101          
000C48002550000020434201901020000000000SIDNEY DE ABREU                                                             MARIA PADUA DE ABREU            19420128201812252747120988700000000000100708049000101          
000C48002560000020435201901020000000000ALICE NEPOMUCENO DOS SANTOS                                                 SEBASTIANA NEPOMUCENO           19230627201901023777125989800000000000100708049000101          
000C48002560000020436201901020000000000WALTER LINS DE MIRANDA                                                      PRECILA LINS DE MIRANDA         19280922201812251127977083000000000000100708049000101          
000C48002570000020437201901030000000000ROQUE AFONSO DE CAMARGO                                                     MARIA BRANDINA                  19400730201812262741974683400000000000100708049000101          
000C48002570000020438201901030000000000ANAIR JOAQUINA MOREIRA RAMOS                                                ANA DA ROCHA MOREIRA            19540420201812273055031288900000000000100708049000101          
000C48002580000020439201901040000000000MARIA CASTRO FORTUNATO                                                      AUHELA MACHUCAETA               19340730201812280311911587800000000000100708049000101          
000C48002580000020440201901040000000000MARIO RODRIGUES TEIXEIRA                                                    MATHILDE RODRIGUES TEIXEIRA     19361115201812280430718683400000000000100708049000101          
000C48002590000020441201901040000000000DIRMA PEREZ CUCCOLO                                                         ANITA GARCIA AVELLAN            19330917201812293846380288500000000000100708049000101          
000C48002590000020442201901040000000000SUELY FERREIRA DE SOUZA CORDERO                                             APPARECIDA FERREIRA DE SOUZA    19540523201812312137657481000000000000100708049000101          
000C48002600000020443201901040000000000MARILIZA RICCI                                                              ANTONIA MOURA RICCI             19470404201812311141786680200000000000100708049000101          
000C48002600000020444201901040000000000ROSA LIDIA BEZERRA DO NASCIMENTO                                            JARDIA CARDOSO BEZERRA          19540625201812313461449180400000000000100708049000101          
000C48002610000020445201901040000000000JOAQUIM LAURINDO LEITE                                                      VIRGINIA GERTRUDES DA CONCEICAO 19431212201901015724571188700000000000100708049000101          
000C48002610000020446201901070000000000ANGELICA MOREIRA DE TOLEDO                                                  MARIA MOREIRA                   19280109201901066919525089100000000000100708049000101          
0000C2000170000000076201812075540933288RAMIRO NEVES                                                                FRANCISCA BRITO NEVES           19420524201812071050629698900000000000100732423000104          
0000C2000180000000077201812241230722227JOAQUIM APARECIDO DO ESPIRITO SANTO                                         GERTRUDES MARIA DE JESUS        19420314201812211612006094400000000000100732423000104          
0000C2000190000000078201812240000000000DIONATAN LAERA                                                              DULCELINA MARTINS LAERA         19891019201812220668880996600000000000100732423000104          
000C92001720000024294201901090000000000LUCIO ALFREDO NEUMANN                                                       IGNORADO                        19610506201901093666340903400000000000100767613000159          
0000C2000490000000261201901091570614382MARIA FARIAS NOGEIRA                                                        EVA FARIAS MACIEL               19651211201901033850289516800000000000100957221000152          
0000C7000870000003268201901100000000000FELIPE FRANCISCO DOS SANTOS                                                 GILVANDA DOS SANTOS             19950726201901080000000000000000000000101008776000110          
0000C7000880000003269201901100000000000JOSE VAGNER PRADO DOS SANTOS                                                MARIA JUCIENE PRADO DOS SANTOS  19870907201901060000000000000000000000101008776000110          
00C251001730000119353201901100000000000GERALDO DE ALBUQUERQUE LYRA                                                 CHRISTINA DA MOTTA LYRA         19321002201901090030020948700000000000101034126000140          
00C251001740000119354201901100000000000MARIA DE LOURDES GONCALVES DA SILVA                                         JOSEFA GONCALVES DA SILVA       19370803201901089339630947200000000000101034126000140          
00C251001750000119355201901100000000000MARIA DO CARMO CARNEIRO                                                     MARIA JOSE DA CONCEICAO         19280120201901090242045545200000000000101034126000140          
00C251001760000119356201901100000000000MARIO LUCIO MONTEIRO DE ALBUQUERQUE                                         LUCILA MONTEIRO DE ALBUQUERQUE  19550420201901090902104349100000000000101034126000140          
00C251001770000119357201901100000000000ARLETE MARIA DE SOUZA                                                       MARIA OLIMPIA DE SOUZA          19220914201901109878767540400000000000101034126000140          
00C251001780000119358201901110000000000MARIA DO CARMO DO NASCIMENTO                                                MARIA JULIA DO NASCIMENTO       19411012201901100471842346500000000000101034126000140          
00C251001790000119359201901110000000000JOAO JOSE DA SILVA                                                          MARIA FRANCISCA DA CONCEICAO    19480102201901090000000000000000000000101034126000140          
00C251001800000119360201901110000000000MARIA NEUSA DE CAMPOS OLIVEIRA                                              MARIA JULIETA DE MESQUITA CAMPOS19270209201901100754950441500000000000101034126000140          
000C19000550000004314201901070000000000ARISTEU BARBOSA                                                             ANA MARIA DO ESPIRITO SANTO     19501004201901021863422587900000000000101106612000126          
000C19000560000004315201901080000000000JOSE LUIZ DE ARRUDA                                                         MARIA AURORA DE ARRUDA          19370318201901061441836381500000000000101106612000126          
000C19000560000004316201901100000000000SERGIO MANOEL MENDES DA SILVA                                               NEUZA ROSA DA SILVA             19380112201901081939127785300000000000101106612000126          
0000C1002160000000216201901030000000000PEDRO HENRIQUE DA SILVA ROSIO                                               JISELE NASCIMENTO ROSIO         20120812201901020000000000000000000000101233785000105          
000C16002950000007988201901031310673621DELSO JOSE DOS SANTOS                                                       LAURINDA ROSA DE JESUS          19400407201812250046991786500000000000101259150000187          
000C16002960000007989201901070000000000ARIOVALDO PEREIRA DOS SANTOS                                                CLARICE TEIXEIRA DOS SANTOS     19460215201812293362204384900000000000101259150000187          
000C16002970000007990201901090000000000ANTONIO GENEROSO                                                            RAIMUNDA MARIA GENEROSO         19520111201901068784789280400000000000101259150000187          
000C27002550000018833201901100000000000SEVERINA MARIA SOARES                                                       MARIA CECILIA DE JESUS          19341223201901108465383340000000000000101347587000172          
000C27002560000018834201901110000000000AUREO BARROS DA SILVA                                                       ELZA BARROS DA SILVA            19700509201901087458516941500000000000101347587000172          
000C12001710000002989201812030000000000LAURO MENDONCA DA CRUZ                                                      LUCIA MENDONCA SIQUEIRA         19801011201812027221516014400000000000101362649000115          
000C12001720000002990201812040000000000JULIANO FREIRES ABREU                                                       JUCELIA DAS DORES F FREIRES     19990712201812020481017216300000000000101362649000115          
000C12001730000002991201812130000000000ABADIAS PEREIRA DE SOUZA                                                    ALICE TAVARES DE SOUZA          19590814201812122017983918700000000000101362649000115          
000C12001740000002992201812140000000000VALDEIR DIVINO CRUZ DE OLIVEIRA                                             MARIA BELA DE OLIVEIRA          19750706201812108914563111500000000000101362649000115          
000C12001750000002993201812210000000000JOAO PEDRO FERREIRA DA SILVA                                                ADALGIZA THOME FERREIRA         20160201201812200000000000000000000000101362649000115          
000C12001760000002994201812260000000000CLAUDIO VIEIRA DE OLIVEIRA                                                  VALDIRA VIEIRA DE OLIVEIRA      19750528201812255927582010400000000000101362649000115          
000C12001770000002995201812280000000000BEATRYZ LOPES DAVID                                                         LAURENICE PACHECO LOPES         19980704201812270628065612800000000000101362649000115          
000C23001790000003112201901085297555147MARIA LOPES                                                                 BENEDITA COSTA                  19420131201901010812716370800000000000101445590000129          
000C12002880000001892201901020000000000ALZIRA BATISTA PINTO PEREIRA                                                MARIA BATISTA PINTO             19400809201812228659258061500000000000101519920000183          
000C12002890000001893201901040000000000MARIA DAS DORES GONCALVES DE LIMA                                           UBALDINA GONCALVES DE OLIVEIRA  19640915201812226551873065900000000000101519920000183          
000C12002890000001894201901070000000000GERALDO DE SOUZA CAMARGOS                                                   LOURDES DE SOUZA CUNHA          19550809201901053574755260000000000000101519920000183          
000C12002890000001895201901090000000000JUVENTINO RODRIGUES MARRA                                                   LUIZA RODRIGUES SILVA           19430517201901070473191466300000000000101519920000183          
0000C2000180000000801201901110000000000JOSE RENATO HOLANDA DA CONCEICAO                                            MARIA JOSE DA CONCEICAO         19851003201901080722243847500000000000101612127000124          
0000C6002560000005404201901030000000000JOSE GABRIEL VALE FERREIRA                                                  RAIMUNDA VALE FERREIRA          19570316201901018003949939100000000000101667116000141          
0000C6002570000005405201901030000000000ANA LUCIA COSTA LEITE PACHECO                                               ZELIA AMORIM COSTA LEITE        19650704201901014090552737200000000000101667116000141          
0000C6002580000005406201901070000000000RAIMUNDO JOAO DA COSTA VALE                                                 SOFIA DA COSTA VALE             19370716201812300325179930400000000000101667116000141          
0000C6002590000005407201901070000000000CATARINA COSTA LEITE                                                        MATILDE COSTA LEITE             19370430201812177056440037800000000000101667116000141          
0000C6002600000005408201901080000000000ALBINA SOUZA MARTINS SANTOS                                                 TEODORA SOUZA                   19350903201812250339233036100000000000101667116000141          
0000C6002610000005409201901090000000000MARIA DAS DORES DOS SANTOS                                                  ANDREZA DOS SANTOS              19640505201901060247558273100000000000101667116000141          
0000C6002620000005410201901090000000000ANTONIO RIBEIRO SILVA                                                       CLARA RIBEIRO SILVA             19320521201812290319606236800000000000101667116000141          
0000C4000850000000534201812031500964040FRANCISCO PEREIRA DO NASCIMENTO                                             FRANCISCA LUZIA DO NASCIMENTO   19490525201811280078764033616874945069101722387000152          
0000C4000860000000535201812100000000000RAIMUNDO GOMES DE ALENCAR                                                   MARIA VIEIRA DE ALENCAR         19410531201812060034433236500000000000101722387000152          
0000C4000860000000536201812240000000000FRANCISCO MOTA GOMES                                                        MARIA VIRGINA DAS DORES         19661021201812133620372616800000000000101722387000152          
0000C4000870000000537201812261579945306JOSE ELUZIETE DE SOUSA                                                      LUZIA PEREIRA DE SOUSA          19520706201812169895685033000000000000101722387000152          
000C14001870000007128201901010000000000JOSE FRANCISCO DA SILVA                                                     MARIA NUNES PEREIRA             19430730201812310929587960000000000000101859116000143          
000C14001880000007129201901030000000000DEUSDETE MARTINHO DE MELO                                                   MARIA RITA DE JESUS             19420616201901021784237965300000000000101859116000143          
000C14001890000007130201901040000000000ROSA MARIA DE JESUS                                                         MAXIMIANA ROSA DE JESUS         19280725201901030263866165100000000000101859116000143          
000C14001900000007131201901070000000000ADRIANO DE SOUZA LOPES                                                      MARIA ALTINA VIANA              19850411201901040649152760300000000000101859116000143          
000C14001910000007132201901070000000000CARLOS DA SILVA MACHADO                                                     ZELIA MARIA DA SILVA MACHADO    19791111201901060724119361000000000000101859116000143          
000C14001920000007133201901080000000000SANTO NERES SENA                                                            ONORINDA MARIA DE JESUS         19680502201901021383877882000000000000101859116000143          
000C14001930000007134201901080000000000MARGARIDA FERREIRA DA SILVA                                                 TINTILIANA FERREIRA             19640831201901070991593863200000000000101859116000143          
000C14001940000007135201901100000000000OTACILIO NOGUEIRA                                                           JOSEFA ROSA NOGUEIRA            19430406201812130135088267400000000000101859116000143          
000C22000900000005933201901091143496032MARIA BEATRIZ DE JESUS E SILVA                                              BEATRIZ MARIA DE JESUS          19410327201901078251080665300000000000101861559000179          
000C22000900000005934201901091335514977JOSE FRANCISCO DA SILVA                                                     ZENI LUCIANA DA SILVA           19340806201901084790253171500000000000101861559000179          
0000C4000970000002081201901030000000000AGUSTINHA PAULINA DOS SANTOS                                                GERMINIANA FERREIRA DE MEDEIROS 19261112201812250015475760800000000000101911891000109          
0000C4000970000002082201901070000000000ZILDA MARIA DE JESUS DA SILVA                                               ELISA MARIA DE JESUS            19311030201901040094102465200000000000101911891000109          
000C49000780000028006201802020000000000ALBERTO EGIDIO COELHO CARNEIRO                                              IGNORADO                        19590901201802010000000000000000000000101931311000137          
0000C2001260000000422201812110836683323MARIA DAMIANA DIOGENES                                                      JOSEFA DIOGENES PEIXOTO         19411024201811302415759732000000000000102119809000162          
0000C6001950000002544201811281138316536FRANCISCO MARTINS DA SILVA                                                  RAIMUNDA MARTINS DA SILVA       19390621201811137132618938700000000000102138369000190          
0000C6001960000002545201812030000000000SEVERINO SALDANHA PEIXOTO                                                   ANA SALDANHA                    19471116201811271917666039700000000000102138369000190          
0000C6001970000002546201812061272247861MARIA LUIZA BEZERRA DE ARAUJO SANTOS                                        ODORICO BEZERRA DE ARAUJO       19471026201811257006875536800000000000102138369000190          
0000C6001980000002547201812141503631378MARIA DE FATIMA RODRIGUES TARGINO                                           MARIA ETELVINA DE BRITO         19540724201812090189839236600000000000102138369000190          
0000C6001990000002548201812170000000000JACKELINE SILVA MOREIRA                                                     DAMIANA ARAUJO DA SILVA         20060303201812060883384434000000000000102138369000190          
0000C6002000000002549201812181529216513FRANCISCA MARIA DE JESUS LIMA                                               RAULINO ALIPIO OLIVEIRA         19380123201812044043853831500000000000102138369000190          
0000C6002010000002550201812270498191737HILCA MARIA FAMA                                                            MARIA DE LOURDES DE SOUZA       19370929201812174438766036800000000000102138369000190          
0000C6002020000002551201901020000000000VICENTE ROCHA ALIPIO                                                        MARIA ROCHA DE OLIVEIRA         19410415201812272208284038700000000000102138369000190          
00C425002090000135147201901090000000000GERCI RODRIGUES DE SOUZA                                                    JURACI RODRIGUES DE SOUZA       19551111201901086045263375300000000000102332389000106          
00C425002100000135148201901090000000000SUZANA CONCEICAO MORORO LAURENTINO                                          HONORILDA DA CONCEICAO MORORO   19670805201901080024976679500000000000102332389000106          
00C425002110000135149201901090000000000ANA MARIA MANOEL DE SOUZA                                                   NEUZA SUZANO MANOEL             19570723201901070186853670000000000000102332389000106          
00C425002120000135150201901090000000000MARIA DA CONCEICAO MOREIRA                                                  PAULINA SELPA                   19550323201901071219927171400000000000102332389000106          
00C425002130000135151201901090000000000GAEL PIMENTEL DE QUEIROZ                                                    AMANDA PIMENTEL DE QUEIROZ      20181211201901080000000000000000000000102332389000106          
00C425002140000135152201901090000000000MARIA ROSA PIRES VIEIRA                                                     MARIA ROSA SIMOES PIRES         19330228201901093840229774900000000000102332389000106          
00C425002150000135153201901090000000000ANTONIA FRANCISCA DE MELO BARBOSA                                           MARIA JANUARIA                  19381004201901070693151471700000000000102332389000106          
00C425002160000135154201901090000000000FRANCISCO VIEIRA DA SILVA                                                   IGNORADO                        19830612201901090607858877000000000000102332389000106          
00C425002170000135155201901090000000000BENEDITO PEREIRA NUNES                                                      JOSEFA MARIA DA CONCEICAO       19420501201901093892288674900000000000102332389000106          
000C34002810000010181201901090000000000JORGE LUIZ LIMA                                                             MARIA DE OLIVEIRA LIMA          19540314201901085338195577200000000000102332389000106          
000C34002820000010182201901090000000000JOAO JOSE DE CARVALHO                                                       NELCINA ISALTINA DA CONCEICAO   19440802201901094016873576800000000000102332389000106          
0000C8001080000003917201901100000000000THEODORA DOS SANTOS                                                         ERNESTINA PANTOJA DOS SANTOS    19351224201901096801582828700000000000102392787000100          
000C33002570000005797201901100000000000RAIMUNDO GONCALVES DUARTE                                                   ANTONIA RUFINO DUARTE           19770427201901037442665632000000000000102537153000106          
0000C2001210000000884201901030000000000FRANCISCA FACI RODRIGUES MARTINS                                            AMELIA CAITANO RODRIGUES        19680515201812184700193336800000000000102574165000100          
0000C2001220000000885201901091296111722JOSE FURTADO JUNIOR                                                         SEBASTIANA FIRMIANO DE SOUZA    19430507201901022443261034400000000000102574165000100          
000C90002590000053731201901100000000000NOEMIA FONSECA SCHMIDT                                                      HARMONIA GUERREIRO DA FONSECA   19380516201901089789734581500000000000102619489000100          
000C90002600000053732201901100000000000ANTONIO ROBERTO PEREIRA FLORENCANO                                          NILDA PEREIRA FLORENCANO        19470824201901015415567380000000000000102619489000100          
000C90002600000053733201901100000000000NEUSA DE OLIVEIRA CASAGRANDE                                                MARIA BENEDICTA M DE OLIVEIRA   19390724201901030942092880200000000000102619489000100          
000C90002610000053734201901100000000000MARIA APARECIDA FERREIRA                                                    GERALDA MAXIMO FERREIRA         19550320201811250712806784100000000000102619489000100          
0000C3000120000000459201812100000000000LINDAURA PAIVA DE SOUZA                                                     AMELIA PAIVA DE SOUZA           19270221201811261546087834900000000000102631078000130          
0000C3000130000000460201812110000000000FRANCISCO VALDECI MONTEIRO DOS SANTOS                                       IRACEMA MONTEIRO DOS SANTOS     19770405201812059167744036800000000000102631078000130          
000C94002880000026761201901090000000000MARIA DE SOUZA LIMA                                                         ANGELINA MARIA DE PAULA         19280925201901091053463677200000000000102649847000127          
000C94002890000026762201901090000000000NATALINO DA SILVA                                                           MARIA NAZARETH DO NASCIMENTO    19340123201901090327683970900000000000102649847000127          
0000C3001030000001684201901100000000000FRANCISCO ANTONIO SILVA PINHEIRO                                            VILANI MARIA DA SILVA           19960315201901056139200539600000000000102661943000190          
0000C4000090000000396201901030534283705MARIA PIRES                                                                 JOSINA ROMEIRA DA SILVA         19370804201812229089356517200000000000102664209000185          
00C340002680000072989201901090000000000SONIA GONCALVES BITTENCOURT                                                 ELIZA VIANNA                    19251125201901080214750876400000000000102687542000100          
00C340002690000072990201901090000000000SAMUEL CORTES ILIDIO                                                        PATRICIA CORTES PAULA ILIDIO    20180420201901080000000000000000000000102687542000100          
00C340002700000072991201901090000000000MARIA CELIA MAYRINK DE BRITTO PEREIRA                                       AIDA CIUFFO MAYRINK             19290916201901095333075778700000000000102687542000100          
00C340002710000072992201901090000000000BEATRIZ BARROS DO AMARAL                                                    ANTONIETTA AGUIAR B DO AMARAL   19360724201901080228766877200000000000102687542000100          
00C340002720000072993201901090000000000IGOR ARAUJO SOARES                                                          MARIA DO ROSARIO ARAUJO NETA    20030505201901081299981275200000000000102687542000100          
000C25001430000006971201901030000000000DOMENICO CUGLIARI                                                           SQUILLACE MARIANGIOLA           19340204201812280891953485300000000000102704341000173          
000C25001430000006972201901030000000000MARCIA CRISTINA MARCELLO DOS SANTOS                                         CIZINA GUILHERME DOS SANTOS     19600124201812290719924880600000000000102704341000173          
000C20002620000006883201901080000000000JOSE WERNECK                                                                MARIA HELENA WERNECK            19290116201901073419057075300000000000102708035000105          
0000C7000210000000768201812121334062762MARIA FRANCISCA DE JESUS SILVA                                              IGNORADO                        19381118201812010782635580000000000000102713071000167          
0000C7000220000000769201812271309896230MARIA FERNANDES DOS SANTOS                                                  MARIA ROSA FERNANDES            19331224201812201949505618700000000000102713071000167          
0000C1001280000000436201901100753460645JOSEFINA MACHADO COELHO                                                     ODILIA ROSA DA SILVEIRA         19301210201901084679656816800000000000102713113000160          
0000C1001280000000437201901101671533701JAIRS CANDIDO NETO                                                          DINORA FERREIRA CANDIDO         19600515201901080000000000000000000000102713113000160          
00C197002120000075670201901090000000000MARIA GERALDA DE CASTRO REIS                                                AMELIA DA CUNHA E CASTRO        19331103201901092536978478700000000000102740586000156          
00C197002130000075671201901090000000000JURACY CAMPOS GARCIA DO NASCIMENTO                                          ALCINA DA CONCEICAO             19301013201901080073885878100000000000102740586000156          
00C197002140000075672201901090000000000ILDENE BONA DUARTE                                                          ICILIA FREIRE DE SEIXAS BONA    19380803201901088107347072500000000000102740586000156          
00C197002150000075673201901090000000000JOSE BRAGA DE SOUZA                                                         GERALDA DE SOUZA                19310330201901081073293475300000000000102740586000156          
00C197002160000075674201901090000000000ANTONIO INACIO FRANCO                                                       TEREZA LOPES FRANCO             19581108201901066542910972000000000000102740586000156          
00C197002170000075675201901090000000000MARIA DA PENHA ROBERTO INACIO                                               PASCOALINA GRACIANA DO CARMO    19530529201901096963720274900000000000102740586000156          
00C197002180000075676201901090000000000WAGNER GIL DA SILVA AGUIAR                                                  ISAURA DA SILVA AGUIAR          19650727201901098408690477200000000000102740586000156          
00C197002190000075677201901090000000000CARLOS ALBERTO PINHEIRO DA SILVA                                            ROSALINA PINHEIRO DA SILVA      19720119201901080410997277900000000000102740586000156          
000C25001080000008535201901090000000000ELIZETE CARDOSO DOS SANTOS                                                  LUZIA MARIA DE JESUS            19390421201901070130728357800000000000102746449000129          
0000C4000560000000255201901101227380035LUCIANO PINTO DA FONSECA                                                    RAIMUNDA FERREIRA DA FONSECA    19570129201812262261279310000000000000102758407000108          
00C212002930000076609201901090000000000ANGELA MARIA NUNES ARAUJO                                                   ODACY NUNES ARAUJO              19541204201901088091661975300000000000102768502000192          
00C212002950000076611201901090000000000ELI PAJON GUEDES                                                            ROSA PAJON ABAD                 19600530201901090209200774200000000000102768502000192          
0000C9000880000002488201901070000000000RAFAELLA ARAUJO FIDELIS MENDES                                              FLAVIA ARAUJO DE FARIAS         20040626201901060000000000000000000000102768502000192          
0000C9000900000002490201901080000000000RICARDO LESSA BARBOSA                                                       HILDELISA DA SILVA BARBOSA      19620817201901077575572678700000000000102768502000192          
0000C9000910000002491201901090000000000RICARDO FERREIRA DA SILVA                                                   ALAIR FERREIRA DA SILVA         19660610201901089210844076300000000000102768502000192          
0000C6000610000002504201805090000000000ANA CAROLINA FERREIRA CUNHA DE MENEZES                                      LUZENY FERREIRA DA CRUZ SOUZA   00000000201805050000000000000000000000102790673000118          
0000C6000610000002505201805100000000000JOSE GONCALVES DA CRUZ                                                      MARIA RITA GONCALVES            00000000201805090000000000000000000000102790673000118          
0000C6000610000002506201805110000000000MARIA DE OLIVEIRA DE JESUS                                                  IGNORADO                        00000000199009120000000000000000000000102790673000118          
0000C6000610000002507201805110000000000JOVELINA COELHO DOS SANTOSQ                                                 IGNORAD O                       00000000200208260000000000000000000000102790673000118          
0000C6000620000002508201805150000000000JOSE FERREIRA DE SOUZA                                                      MARIA FERREIRA DE SOUZA         00000000201805110000000000000000000000102790673000118          
0000C6000620000002509201805150000000000ELIFA LEVIR FERREIRA                                                        ANAIRDES JOSE MEDANHA           00000000201805100000000000000000000000102790673000118          
000C23001720000013522201901100591352354MARIA BARBOSA RODRIGUES                                                     JULIA BARBOSA DE ARAUJO         19210621201901095940546544900000000000102825523000100          
000C23001730000013523201901100000000000MARIA ANA DO ESPIRITO SANTO                                                 ANA MARIA DO ESPIRITO SANTO     19470918201901098107417445300000000000102825523000100          
000C23001740000013524201901100946590435VIRGINIA ARCANJO DE JESUS                                                   AMELIA ARCANJO DE FARIAS        19260220201901099729894841500000000000102825523000100          
000C10002070000002300201901090000000000MARIA APARECIDA DE JESUS                                                    JOSEFINA EMERENCIANA DE JESUS   19480301201901099707446277200000000000102887713000144          
0000C2000060000000301201901090000000000JOSE ALMEIDA FILHO                                                          JERONIMA LUIZA DOS SANTOS       19350402201802069145902810400000000000102888170000180          
0000C5000640000001760201901041547193708LAIDES MARIA RODRIGUES                                                      MARIA ANA DE FARIA              19510824201901030101239211200000000000102890499000185          
0000C5000650000001761201901091557289341IVALDINA VIEIRA ARRUDA                                                      MARIA PEREIRA ARRUDA            19570718201901051234219018200000000000102890499000185          
000C94000290000036524201901100000000000MARTA LUIZA FORTUNATO                                                       MARIA IZABEL DOS S FORTUNATO    19621122201901107006861560400000000000102904162000180          
000C45001110000012536201811210000000000MARLETE FERNANDES DA SILVA                                                  MARIA FERNANDES LIMA            19510819201811210352691573300000000000102925252000157          
000C45001730000012598201901090000000000MARIA EUDINA CARDOSO SILVA                                                  JUDITH MARIA CARDOSO            19551020201901090189664371000000000000102925252000157          
000C45001740000012599201901090000000000LUIZ VANDERLEI MORAES DE SOUZA                                              SEBASTIANA MORAES DE SOUZA      19610509201901086418191072500000000000102925252000157          
000C45001750000012600201901090000000000MANOEL ANTONIO PINTO                                                        VIRGINIA MARIA PINTO            19410517201901091863362576800000000000102925252000157          
000C45001760000012601201901100000000000ELITE CARVALHO DA COSTA                                                     MARIA ESCOLASTICA M DE CARVALHO 19251230201901091125494778700000000000102925252000157          
000C13001780000003227201901020000000000ALEXANDRE BOINA SILVEIRA                                                    MARLENE BOINA SILVEIRA          19930926201901010711991995400000000000102930705000133          
000C13001790000003228201901030000000000OLIEL HONORIO                                                               CLEONICE CANDIDO HONORIO        19811110201812270538795492300000000000102930705000133          
000C13001800000003229201901070000000000THEREZA DO PRADO                                                            MARIA THEODORA DE JESUS         19360602201901052548184390000000000000102930705000133          
000C13001810000003230201901070000000000VIANEI MATEUS DE MELLO                                                      ELIA MATHIAS DE MELLO           19700804201901026126023102000000000000102930705000133          
000C13001820000003231201901090000000000JOSE ALVES FERNANDES DA SILVA                                               MARGARIDA MARIA FERNANDES       19560110201901070356395383000000000000102930705000133          
0000C9001060000003193201901020000000000JOAO VAZ                                                                    ELVIRIA MARIA DAVINA            19440411201901014392742490000000000000102940912000179          
0000C9001070000003194201901020000000000JHONATAN DA SILVA MODOLO                                                    ROSENILDA MARIA DA SILVA MODOLO 19990319201812311014395895000000000000102940912000179          
0000C9001080000003195201901020000000000JOAO PIO DE OLIVEIRA                                                        JULIETE MARIA DE OLIVEIRA       19311003201812311291293094400000000000102940912000179          
0000C9001090000003196201901030000000000HILDA VEIGA                                                                 ROSA MENIN PIVOVAR              19371015201901034661994191500000000000102940912000179          
000C89001780000021968201901090000000000FRANCISCO DE ASSIS MORAIS                                                   TEREZA DA CONCEICAO MORAIS      19570207201901090607087579600000000000102989858000156          
0000C3001280000001397201709180000000000ROGACIANO JERONIMO DE MACEDO                                                QUITERIA JERONIMO DE MACEDO     19400510201709150000000000000000000000103128571000102          
000C19001210000004890201901080000000000ALMIRO PEREIRA DE BRITO                                                     ERMENDIA PEREIRA DE BRITO       19481027201901072562486510400000000000103159889000142          
000C19001220000004891201901080000000000EDSON ELPIDIO DE OLIVEIRA                                                   MARIA APARECIDA DA SILVA        19710501201901067077349110400000000000103159889000142          
000C19001230000004892201901090000000000MARIA ONETE DE MELO MARTINS                                                 IZABEL DE MELO ARAUJO           19290607201901094627167814900000000000103159889000142          
0000C5000010000001201201901090000000000VERA OLIMPIEFF                                                              MARIA APPARECIDA B OLIMPIEFF    19410413201901080348488270000000000000103184746000190          
0000C5000020000001202201901090000000000MARIA DA PENHA RIBEIRO DE OLIVEIRA                                          MARIA DA PENHA CARDOSO          19500301201901089653346377200000000000103184746000190          
0000C5000030000001203201901090000000000MIGUEL DE JESUS LIMA                                                        CLAUDIA SACRAMENTO DE JESUS LIMA20000419201901091776547977600000000000103184746000190          
00C111000870000041937201901100000000000IRACI ANDRADE SANTOS                                                        EULINA OLIVEIRA                 19330614201901104278183348700000000000103462979000108          
00C111000880000041938201901100000000000FERNANDA DE FATIMA BARRETO LEITE                                            IGNEZ ALVES BARRETO LEITE       19581012201901104344989147200000000000103462979000108          
00C111000890000041939201901100000000000MARIA DE OLIVEIRA VIEWIRA                                                   JOAN MARIA DA CONCEICAO         19380113201901090210932147400000000000103462979000108          
00C111000900000041940201901100000000000EDVALDO ELIAS DA CUNHA                                                      INACIO ELIAS DA CUNHA           19431107201901104599359963400000000000103462979000108          
00C111000910000041941201901100000000000PAULO ROBERTO DE FARIAS BRAGA                                               HELENA REIS FARIAS              19541223201901101138189243400000000000103462979000108          
0000C5001680000004757201901110000000000RACHAEL MARIA MONTEIRO DINIZ                                                JOANA MARIA DO ESPIRITO SANTO   19390411201901107066106547200000000000103465094000162          
000C16000370000001280201901020000000000JOAO JOSE DE ANDRADE                                                        ALZIMIRA FERREIRA LIMA          19361123201812230039979385200000000000103517771000149          
000C24000970000002506201901070000000000ANTONIO SANTOS MOURA                                                        SOFIA SANTOS MOURA              19450612201901075116500780000000000000103578888000132          
0000C7001370000003337201812040000000000MARIA NEIENE DOS SANTOS                                                     MARIA ROSA DOS SANTOS           19551223201812010505318440200000000000103692728000110          
0000C7001380000003338201812050000000000AURELIANO ARAUJO                                                            MARIA BEZERRA DE MORAES         19270706201812041295276143400000000000103692728000110          
0000C7001390000003339201812060000000000ABELARDO NUNES BARBOSA                                                      OLIVIA NUNES BARBOSA            19470601201812063527102744900000000000103692728000110          
0000C7001400000003340201812070000000000IVONETE DOS SANTOS                                                          MARIA JOSE DOS SANTOS           19721108201812060879724447300000000000103692728000110          
0000C7001410000003341201812100000000000JOSE AGNALDO DOS SANTOS                                                     EDILENE DOS SANTOS              19930510201812091108887848200000000000103692728000110          
0000C7001420000003342201812130000000000JOSE BENEDITO DA SILVA                                                      MERZINDA MARIA DA CONCEICAO     19291124201812118036318040000000000000103692728000110          
0000C7001430000003343201812130000000000MARIA LOURENCO DA SILVA                                                     JOSEFA LEOPOLDINA DA CONCEICAO  19191125201812120191618640800000000000103692728000110          
0000C7001440000003344201812130000000000MARCIO NASCIMENTO SILVA                                                     CELEIDE DO NASCIMENTO SILVA     20181202201812020523388047400000000000103692728000110          
0000C7001450000003345201812140000000000ADORILHO BATISTA DOS SANTOS                                                 ODETE MARIA DOS SANTOS          19620228201812131548362042900000000000103692728000110          
0000C7001460000003346201812140000000000MARIA DAS VIRGENS CONCEICAO                                                 JULIA MARIA DA CONCEICAO        19220705201812140351938648800000000000103692728000110          
0000C7001470000003347201812170000000000MARIA ANA DA SILVA                                                          JOSEFA ANA DE FARIAS            19321208201812169555254540000000000000103692728000110          
0000C7001480000003348201812170000000000MARIA ROSA DA CONCEICAO                                                     EMILIA ROSA DA CONCEICAO        19440126201812167880100148700000000000103692728000110          
0000C7001490000003349201812170000000000GECI TEIXEIRA DE MELO                                                       DIVANETE MARIA DE MELO          19670724201812116054214446800000000000103692728000110          
0000C7001500000003350201812170000000000MARIA LUIZA BISPO DOS SANTOS                                                MARIA JOSE DOS SANTOS           19670621201812150919858244500000000000103692728000110          
0000C7001510000003351201812170000000000JOSE HILDO GERMANO DOS SANTOS                                               LEONITA MARIA DOS SANTOS        19460621201812161448733049100000000000103692728000110          
0000C7001520000003352201812200000000000MARIA APARECIDA AMORIM DA SILVA                                             SEBASTIANA SENHOZINHO DA SILVA  19620705201812126361114740000000000000103692728000110          
0000C7001530000003353201812220000000000OTACILIA INACIO DE SOUZA                                                    INACIA FRANCISCA DA CONCEICAO   19350613201809226243408043000000000000103692728000110          
0000C7001540000003354201812260000000000JOSEFA BALBINO DE ALMEIDA                                                   JOSEFA MARIA BALBINO DOS SANTOS 19520712201812256195340740400000000000103692728000110          
0000C7001550000003355201812270000000000TELMA PEREIRA FERREIRA                                                      CELIA PEREIRA FERREIRA          19870516201812241032329645900000000000103692728000110          
0000C7001560000003356201812270000000000LUIZ BORGES ARAUJO                                                          ZULMIRA NOMERIANO ARAUJO        19370624201812270412858045700000000000103692728000110          
0000C7001570000003357201812270000000000MARIA DE FATIMA GOMES DA SILVA                                              JACINTA FRANCISCA DOS SANTOS    19620209201812270208362940000000000000103692728000110          
000C30000280000010756201901090000000000JORGE LUIS ANASTACIO PEREIRA                                                LEILA CRISTINA DE LIMA ANASTACIO19900608201901060000000000000000000000103745052000185          
000C31000040000003588201901100000000000WANDERLEY LEANDRO PASSOS DOS SANTOS                                         IGNORADO                        19970916201812240000000000000000000000104130423000187          
000C20001970000007450201812041300374311GERALDA MARIA DE JESUS                                                      CLARA MARIA DE JESUS            19160118201811273149425018700000000000104145120000138          
000C20001980000000198201812110000000000JOSE GALDINO FLORES                                                         ANTONIETA DA SILVA FLORES       19591129201812102801475815300000000000104145120000138          
000C20001980000007451201812050000000000HELENA CARLOS MAGALHAES                                                     LUZIA CARLOS VIEIRA             19320626201811270283868813800000000000104145120000138          
000C20001980000007452201812101269401596SEBASTIAO CORREA ROQUE                                                      ANTONIA ROSA DE JESUS           19300823201812080000000000000000000000104145120000138          
000C20001980000007454201812110307391779NADIO PELLES                                                                BHICE PELLES                    19230804201812100035510013400000000000104145120000138          
000C20001990000007455201812121204030151ONOFRE RAIMUNDO PINTO                                                       SEBASTIANA TEIXEIRA PINTO       19400612201812120135017017800000000000104145120000138          
000C20001990000007456201812211739277861MAURITA FATIMA VALVERDE                                                     EVA ROSA DE OLIVEIRA            19590804201812120271875712400000000000104145120000138          
00C131000380000028665201901100000000000FABIA JULIA DA SILVA                                                        JULIA CICERA DA SILVA           19640708201901094000567446800000000000104151215000164          
00C131000390000028666201901100000000000DEONICI PEREIRA DA SILVA                                                    SEVERINA MARIA DE SANTANA       19491009201901090206655045000000000000104151215000164          
00C131000400000028667201901100000000000LUIZ CARLOS DIAS DE CARVALHO                                                ANTONIA DA PAZ DE SOUZA         19460203201901091809170940400000000000104151215000164          
00C131000410000028668201901100000000000AMARA ALICE DA SILVA                                                        MARIA GUILHERMINA DA SILVA      19221225201901083746039045300000000000104151215000164          
00C131000420000028669201901100000000000ALIETE VITAL FERREIRA                                                       AMALIA VITAL FERREIRA           19371102201901105327080048700000000000104151215000164          
000C23000860000011819201901100000000000NILZETE DOS SANTOS                                                          TEREZINHA DOS SANTOS            19751001201901060000000000000000000000104247585000108          
000C66000560000018690201901100517168316MARIA DE LOURDES DOS SANTOS                                                 JOANA FRANCISCA DE MELO         19570529201812230000000000000000000000104315261000151          
0000C5001810000002420201901090000000000MARIA DENI BATISTA                                                          MARIA CREUZA DE ARAUJO BATISTA  19790822201812280574493042600000000000104430995000181          
0000C5001810000002421201901100000000000VALERIO ANTONIO DE NOVAIS                                                   AMERINA ROSALINA DE NOVAIS      19260520201812287568304043400000000000104430995000181          
000C16000600000001560201901020000000000ALEXSANDRO LOPES DOS SANTOS                                                 ANA SOUZA DOS SANTOS            19850704201812200838780563700000000000104490646000155          
000C16000610000001561201901040000000000JOAO PEREIRA DE SOUZA                                                       SEBASTIANA MARIA NUNES          19470515201901026024886667200000000000104490646000155          
000C16000620000001562201901040000000000WARLEY LOPES DE SOUZA                                                       VALDECIRA MARIA LOPES           20030904201901020834325861400000000000104490646000155          
000C16000630000001563201901070000000000LUCIA MARIA RODRIGUES                                                       MARIA FILISMINA DA CONCEICAO    19571122201901071089346565800000000000104490646000155          
000C16000640000001564201901090000000000JOAO REIS DOS SANTOS NETO                                                   MARIA DO ROSARIO DE F SANTOS    19781210201901060589403869300000000000104490646000155          
000C16000650000001565201901100000000000JOSE IZIDORIO CANDIDO FILHO                                                 MARIA DORALICE DE JESUS         19421030201901090671493167000000000000104490646000155          
000C68000880000013657201901060000000000JORENA OLIVEIRA DA SILVA                                                    IGNORADO                        19390624201901060102477507000000000000104529190000190          
00C177000850000052335201901100000000000VANI TEREZINHA MACIEJEZYK                                                   IGNORADO                        19420510201901099106396500400000000000104530907000113          
00C177000890000052339201901100000000000JORGE DA SILVA ARBO                                                         IGNORADO                        19530130201901103387795505300000000000104530907000113          
0000C3001760000001449201901100000000000KEWEN DEYVISON COSTA DOS SANTOS                                             KATIA MARIA LUCAS C DOS SANTOS  19930802201901080590524836200000000000104539685000108          
0000C2001880000000968201802270000000000RONILDO SILVA MOREIRA                                                       HONORINA SILVA                  19630610201802131771539321500000000000104546982000172          
0000C2001900000000976201804180000000000PEDRO DA SILVA ALMEIDA                                                      IRAIDE DA SILVA ALMEIDA         19720630201804144578525228700000000000104546982000172          
0000C2000260000000706201901090000000000JOSE VICENTE DE MORAES                                                      MARIA MADALENA DA CONCEICAO     19280206201812295409297334900000000000104573413000116          
000C11000960000004220201901100000000000BENEDITA DE SOUSA MAGALHAES                                                 ANA DE SOUSA MAGALHAES          19380803201901085653162116800000000000104606690000188          
000C16000090000004575201901025207354953MANOEL ROSA DE JESUS                                                        EURIDES ROSA DE JESUS           19630304201812290340681519700000000000104706205000148          
000C16000100000004576201901020000000000VITOR GABRIEL DO NASCIMENTO SILVA                                           DANIELI BRAZ DA SILVA           20181227201812270978081617800000000000104706205000148          
000C16000110000004577201901091130984416MARIA MARQUES RIBEIRO                                                       MARCIONILIA BORGES DOS SANTOS   19430126201901079352414519100000000000104706205000148          
0000C8001320000005740201812200000000000FRANCISCO GUSTAVO CARULINO MAIA                                             RITA BENVINDO MAIA              20181215201812151609939247500000000000104725871000123          
0000C8001320000005741201812240439698693ALBERTINA FAUSTINA DA SILVA                                                 ELVIRA DE SOUZA                 19340203201812240196279046000000000000104725871000123          
0000C8001330000005742201812270000000000ROSA ALENCAR                                                                SENHORINHA MARIA DE ALENCAR     19250919201812229804357941500000000000104725871000123          
0000C8001350000005751201901080000000000JOSE HERCILIO MAIA                                                          AMELIA RODRIGUES MAIA           19290911201812280096982640000000000000104725871000123          
00C106001460000030072201901070000000000ONERCILIA DE OLIVEIRA BARROS                                                CLAUDEMIRA RAMOS DE OLIVEIRA    19290625201901072868935613400000000000104831474000136          
00C106001470000030073201901070000000000CELIA MARIA PEREIRA DE SOUSA                                                MARIA AUGUSTA MARIANO DE SOUSA  19550912201901075539636414900000000000104831474000136          
00C106001480000030074201901070000000000MARIA VIEIRA PINTO                                                          CAROLINA PEREIRA DA SILVA       19220329201901070018223168200000000000104831474000136          
00C106001490000030075201901070000000000LAZARO CARDOSO DO VALE                                                      CATARINA FERREIRA DA SILVA      19351217201901070368220567500000000000104831474000136          
00C106001500000030076201901070000000000ILDA VIEIRA DA SILVA                                                        GUILHERMINA PEREIRA DA SILVA    19490131201901062269229010000000000000104831474000136          
00C106001510000030077201901070000000000JAKELINNY LIMA DOS SANTOS                                                   CLEONICE LIMA DOS SANTOS        19880112201901030282866116400000000000104831474000136          
00C106001520000030078201901070000000000MARIA SONIA DE OLIVEIRA FERNANDES                                           LEONORA FRANCISCA DE OLIVEIRA   19610904201901078962673754900000000000104831474000136          
00C106001530000030079201901080000000000NEUSA ALVES DE MELO                                                         JOANA ALVES DE MELO             19420104201901075121824017200000000000104831474000136          
00C106001540000030080201901080000000000ROBERIO NEIVA BARRETO                                                       FARAILDES NEIVA BARRETO         19600604201901072897482419100000000000104831474000136          
00C106001550000030081201901080000000000NICEMARIA CARVALHO DOS SANTOS                                               MARIA ROMANA CARVALHO DOS SANTOS19601115201901072483057713400000000000104831474000136          
00C106001560000030082201901080000000000LOURACI PEREIRA DA SILVA                                                    MARIA PEREIRA DA SILVA          19520712201901071825660018700000000000104831474000136          
00C106001570000030083201901080000000000JOSE WILSON DA SILVA                                                        HERMELINDA MARIA T DA SILVA     19450725201901070310445345400000000000104831474000136          
00C106001580000030084201901080000000000SEBASTIAO FELISMINO PAZ                                                     MARIA LUIZA CARNERIO            19381004201901085640296119100000000000104831474000136          
00C106001590000030085201901080000000000CARME LUCIA FERREIRA GANDA                                                  CALMINA FERREIRA GANDA          19661205201901072484524188900000000000104831474000136          
00C106001600000030086201901080000000000DINALVA FRANCISCA DE SOUZA SANTOS                                           EULINA FRANCISCA DE SOUZA       19590730201901088812457657200000000000104831474000136          
00C106001610000030087201901080000000000HILDA ALVES PINTO                                                           ROSA ALVES PINTO                19521028201901072621996418700000000000104831474000136          
00C106001620000030088201901080000000000MARIA EDINEIDE TORRES ROCHA DA COSTA                                        MARIA DE LOURDES TORRES DA ROCHA19750228201901086660356010000000000000104831474000136          
00C106001640000030090201901090000000000RAIMUNDO NONATO DE FREITAS                                                  MARIA LEONICE DE FREITAS        19490526201901087033993218000000000000104831474000136          
00C106001650000030091201901090000000000DANIEL DA SILVA SANTOS                                                      TAIRINY ARIANA DOS SANTOS GOMES 20181221201812250980713510900000000000104831474000136          
0000C3000430000001250201901091466827480MARIA IZABEL DE JESUS                                                       IZABEL MARIA DE JESUS           19550110201812310374395330700000000000104939806000109          
0000C1001690000000244201812040000000000ANTONIO BARBOSA CORDEIRO                                                    RAIMUNDA FARIAS                 00000000201811156401711728700000000000104977899000158          
000C22000810000023326201901090000000000MARIA DO CARMO DE VASCONCELOS COELHO                                        HIGINA MARIA DOS SANTOS COELHO  19481109201901047629481187200000000000104981526000150          
000C22000820000023327201901100000000000JOAO MARQUES DA SILVA FILHO                                                 SEVERINA MARQUES DA SILVA       19731005201901090000000000000000000000104981526000150          
000C22000830000023328201901100000000000MARIA IZABEL DA CONCEICAO                                                   IZABEL MARIA DA CONCEICAO       19400810201901100156456443600000000000104981526000150          
0000C6000600000001487201812030000000000BEATRIZ VAGHETTI ANDERSSON                                                  ELSA HELENA HEIDTMANN VAGHETTI  19540918201812032120645701500000000000105102273000160          
000C23001110000003087201901100000000000ANA ANTONIA DE AMORIM                                                       ANTONIA JOSEFA DA CONCEICAO     19260620201901087697387549100000000000105115708000101          
0000C3002610000001526201901070000000000CONCEICAO PEREIRA DOS SANTOS                                                ZAFIRA MARIA DA CONCEICAO       19491013201901020523279841300000000000105162543000129          
000C18001120000002186201901020000000000GERALDO RODRIGUES DA SILVA                                                  CLAUDINA BARBOSA DE ALFENA      19340629201812262602957089700000000000105203642000101          
000C18001130000002188201901080000000000ELIAS PEREIRA DOS SANTOS                                                    TEREZINHA ROCHA S DOS SANTOS    19860310201901043428235282500000000000105203642000101          
000C20000260000004082201901040000000000CLEUZA DAS GRACAS SILVA MOREIRA                                             ALICE MARIA DA SILVA            19550721201812271300539283000000000000105305929000142          
0000C2000250000000500201811261566298099GREGORIA MOREIRA DE OLIVEIRA                                                ANA MOREIRA DA SILVA            19460909201810268194105668700000000000105338328000136          
000C52001870000025354201901090000000000DURVAL CUSTODIO DE SOUZA                                                    ANA RICARDA DE JESUS            19390421201901080807033065100000000000105364868000194          
000C52001880000025355201901100000000000AMARILDO LOURES DO NASCIMENTO                                               EDIR LOURES DO NASCIMENTO       19700323201901100025317369800000000000105364868000194          
000C52001890000025356201901100000000000ROSENI LOPES DA CUNHA SOARES                                                RUTH LOPES DA CUNHA             19640330201901100048332577500000000000105364868000194          
00C145002780000050407201901100000000000ELZA DA SILVA MORAIS                                                        CONCEICAO DA SILVA FAGUNDES     19230128201901105439846069100000000000105375371000171          
00C145002790000050408201901100000000000DURVAL SOARES FRAGA                                                         LUZIA SOARES PINHEIRO           19310222201901092425520368700000000000105375371000171          
00C145002800000050409201901100000000000MARIA ALVES COELHO                                                          ANA PINHEIRO DOS SANTOS         19380617201901080255154461000000000000105375371000171          
00C145002810000050410201901100000000000MARTINIANO RODRIGUES SOUSA                                                  ROSA RODRIGUES DE OLIVEIRA      19380404201901100000000000000000000000105375371000171          
0000C2000850000001366201812170000000000SERGIO INACIO DE ALCANTARA                                                  MARCIA APARECIDA DE L ALCANTARA 19810524201812099451917020600000000000105381051000124          
0000C2000850000001367201812190000000000LUCILENE DA CUNHA PINA                                                      CANDIDA DAS NEVES CUNHA         19851105201812169507022228700000000000105381051000124          
0000C2000860000001368201812190000000000ARNALDO RODRIGUES DOS SANTOS                                                HILDA VIANA DOS SANTOS          19530108201812171081871520000000000000105381051000124          
0000C2000860000001369201812200000000000JOSIELE DA COSTA PONTES                                                     MARIA DE NAZARE DUARTE DA COSTA 20061026201812180625110528300000000000105381051000124          
0000C2000870000001370201812270000000000DEUZARINA DE LIMA ARAUJO                                                    MARIA TARGINO DE MELO           19560806201812198780396828700000000000105381051000124          
0000C2000870000001371201901080000000000MARIA DE NAZARE CORDEIRO DOS SANTOS                                         ARLETE SOARES CORDEIRO          19960427201812180053434420800000000000105381051000124          
0000C2000880000001372201901080000000000NATALINA TRAVASSOS DO ESPIRITO SANTO                                        MARIA TORQUATA TRAVASSOS        19581214201901027286538527200000000000105381051000124          
0000C2000880000001373201901080000000000MARIA DOS SANTOS FERNANDES                                                  MARIA ANGELICA DOS SANTOS       19520910199710150000000000000000000000105381051000124          
0000C2000890000001374201901100000000000CEZAR CARLOS DE ANUNCIACAO GRACA                                            RAIMUNDA PAZ DE ANUNCIACAO GRACA19631122201901074233789522000000000000105381051000124          
000C36002360000008413201901100000000000RAIMUNDA OLIVEIRA MORAIS                                                    GERALDA OLIVEIRA CAMPOS         19530313201901040156157667000000000000105423292000199          
000C36002370000008414201901100000000000CARLOS VINICIUS NUNES COSTA                                                 MAIZA NUNES DA SILVA            19961212201901061456926268600000000000105423292000199          
00C147002560000110576201812110000000000SIMONE CARLA CHAVES                                                         IGNORADO                        19730223201812090000000000000000000000105432272000184          
0000C6000270000001583201812040000000000JOSE OLIVEIRA DA COSTA                                                      MARIA LAURA DE OLIVEIRA         19630508201812045078569960000000000000105432974000168          
0000C6000280000001584201812050000000000CECILIA ALVES DO NASCIMENTO                                                 ADELIA FERREIRA DA SILVA        19391110201812050250905663800000000000105432974000168          
0000C2001860000000398201812030000000000WALTER RODRIGUES PEREIRA                                                    NALDIA ROSA PEREIRA             19501213201812030393915069000000000000105444141000117          
0000C2001870000000399201812110000000000GERALDA DAS GRACAS DA SILVA                                                 GERALDA DA SILVA                19501002201812107712596760400000000000105444141000117          
000C34001330000010493201901101379617879MARIA HELENA SILVA                                                          MARIA ALVES MEDEIROS            19461008201812240839474466400000000000105467528000199          
000C34001340000010494201901100515364100IZABEL MARIA DE ALMEIDA MIRANDA                                             LAURINDA MARIA DE ALMEIDA       19570601201812291081171383000000000000105467528000199          
000C34001350000010495201901105423363701EVA OLIVEIRA REIS                                                           ANA MARIA DE JESUS              19450714201901079657315565300000000000105467528000199          
0000C2000140000000027201901080000000000VANSEMBERG BALBINO DE SANTANA                                               LAURIZENE BALBINO DE SANTANA    19841004201901050691662541400000000000105481303000197          
000C27000490000000049201811060000000000ESMERALDA SANTA BRIGIDA DOS SANTOS                                          DOMINGAS COSTA DE SANTA BRIGIDA 19570623201811044016127726800000000000105547328000146          
000C27000500000000050201811085211116441FRANCISCO DOS SANTOS FERREIRA                                               ORCINA DOS SANTOS FERREIRA      19411107201810248126396121500000000000105547328000146          
000C27000510000000051201811080000000000ANA LUCIA DE OLIVEIRA E SILVA                                               ESTERLITA PINHEIRO DE OLIVEIRA  19471122201810274809659828700000000000105547328000146          
